{
  "_format": "hh-sol-artifact-1",
  "contractName": "ProductRegistry",
  "sourceName": "contracts/ProductRegistry.sol",
  "abi": [
    {
      "anonymous": false,
      "inputs": [
        {
          "indexed": false,
          "internalType": "uint256",
          "name": "id",
          "type": "uint256"
        },
        {
          "indexed": false,
          "internalType": "string",
          "name": "name",
          "type": "string"
        },
        {
          "indexed": false,
          "internalType": "string",
          "name": "description",
          "type": "string"
        },
        {
          "indexed": false,
          "internalType": "string",
          "name": "manufacturer",
          "type": "string"
        },
        {
          "indexed": false,
          "internalType": "uint256",
          "name": "timestamp",
          "type": "uint256"
        },
        {
          "indexed": false,
          "internalType": "address",
          "name": "addedBy",
          "type": "address"
        }
      ],
      "name": "ProductAdded",
      "type": "event"
    },
    {
      "inputs": [
        {
          "internalType": "uint256",
          "name": "id",
          "type": "uint256"
        },
        {
          "internalType": "string",
          "name": "name",
          "type": "string"
        },
        {
          "internalType": "string",
          "name": "description",
          "type": "string"
        },
        {
          "internalType": "string",
          "name": "manufacturer",
          "type": "string"
        }
      ],
      "name": "addProduct",
      "outputs": [],
      "stateMutability": "nonpayable",
      "type": "function"
    },
    {
      "inputs": [
        {
          "internalType": "uint256",
          "name": "id",
          "type": "uint256"
        }
      ],
      "name": "getProduct",
      "outputs": [
        {
          "internalType": "uint256",
          "name": "",
          "type": "uint256"
        },
        {
          "internalType": "string",
          "name": "",
          "type": "string"
        },
        {
          "internalType": "string",
          "name": "",
          "type": "string"
        },
        {
          "internalType": "string",
          "name": "",
          "type": "string"
        },
        {
          "internalType": "uint256",
          "name": "",
          "type": "uint256"
        },
        {
          "internalType": "address",
          "name": "",
          "type": "address"
        }
      ],
      "stateMutability": "view",
      "type": "function"
    },
    {
      "inputs": [
        {
          "internalType": "uint256",
          "name": "id",
          "type": "uint256"
        }
      ],
      "name": "verifyProduct",
      "outputs": [
        {
          "internalType": "bool",
          "name": "",
          "type": "bool"
        }
      ],
      "stateMutability": "view",
      "type": "function"
    }
  ],
  "bytecode": "0x6080604052348015600f57600080fd5b50610d358061001f6000396000f3fe608060405234801561001057600080fd5b50600436106100415760003560e01c8063524e846214610046578063b9db15b414610076578063c1393d27146100ab575b600080fd5b610060600480360381019061005b91906105a0565b6100c7565b60405161006d91906105e8565b60405180910390f35b610090600480360381019061008b91906105a0565b6100e9565b6040516100a2969594939291906106e3565b60405180910390f35b6100c560048036038101906100c0919061088e565b6103c0565b005b6000806000808481526020019081526020016000206004015414159050919050565b600060608060606000806000806000898152602001908152602001600020600401540361014b576040517f08c379a000000000000000000000000000000000000000000000000000000000815260040161014290610995565b60405180910390fd5b60008060008981526020019081526020016000206040518060c001604052908160008201548152602001600182018054610184906109e4565b80601f01602080910402602001604051908101604052809291908181526020018280546101b0906109e4565b80156101fd5780601f106101d2576101008083540402835291602001916101fd565b820191906000526020600020905b8154815290600101906020018083116101e057829003601f168201915b50505050508152602001600282018054610216906109e4565b80601f0160208091040260200160405190810160405280929190818152602001828054610242906109e4565b801561028f5780601f106102645761010080835404028352916020019161028f565b820191906000526020600020905b81548152906001019060200180831161027257829003601f168201915b505050505081526020016003820180546102a8906109e4565b80601f01602080910402602001604051908101604052809291908181526020018280546102d4906109e4565b80156103215780601f106102f657610100808354040283529160200191610321565b820191906000526020600020905b81548152906001019060200180831161030457829003601f168201915b50505050508152602001600482015481526020016005820160009054906101000a900473ffffffffffffffffffffffffffffffffffffffff1673ffffffffffffffffffffffffffffffffffffffff1673ffffffffffffffffffffffffffffffffffffffff16815250509050806000015181602001518260400151836060015184608001518560a001519650965096509650965096505091939550919395565b8360008060008381526020019081526020016000206004015414610419576040517f08c379a000000000000000000000000000000000000000000000000000000000815260040161041090610a61565b60405180910390fd5b6040518060c001604052808681526020018581526020018481526020018381526020014281526020013373ffffffffffffffffffffffffffffffffffffffff1681525060008087815260200190815260200160002060008201518160000155602082015181600101908161048d9190610c2d565b5060408201518160020190816104a39190610c2d565b5060608201518160030190816104b99190610c2d565b506080820151816004015560a08201518160050160006101000a81548173ffffffffffffffffffffffffffffffffffffffff021916908373ffffffffffffffffffffffffffffffffffffffff1602179055509050507f293ec3b3dde1983226ce6d4fbe439b99b5bafff2b52af41fedba1051e84acf13858585854233604051610547969594939291906106e3565b60405180910390a15050505050565b6000604051905090565b600080fd5b600080fd5b6000819050919050565b61057d8161056a565b811461058857600080fd5b50565b60008135905061059a81610574565b92915050565b6000602082840312156105b6576105b5610560565b5b60006105c48482850161058b565b91505092915050565b60008115159050919050565b6105e2816105cd565b82525050565b60006020820190506105fd60008301846105d9565b92915050565b61060c8161056a565b82525050565b600081519050919050565b600082825260208201905092915050565b60005b8381101561064c578082015181840152602081019050610631565b60008484015250505050565b6000601f19601f8301169050919050565b600061067482610612565b61067e818561061d565b935061068e81856020860161062e565b61069781610658565b840191505092915050565b600073ffffffffffffffffffffffffffffffffffffffff82169050919050565b60006106cd826106a2565b9050919050565b6106dd816106c2565b82525050565b600060c0820190506106f86000830189610603565b818103602083015261070a8188610669565b9050818103604083015261071e8187610669565b905081810360608301526107328186610669565b90506107416080830185610603565b61074e60a08301846106d4565b979650505050505050565b600080fd5b600080fd5b7f4e487b7100000000000000000000000000000000000000000000000000000000600052604160045260246000fd5b61079b82610658565b810181811067ffffffffffffffff821117156107ba576107b9610763565b5b80604052505050565b60006107cd610556565b90506107d98282610792565b919050565b600067ffffffffffffffff8211156107f9576107f8610763565b5b61080282610658565b9050602081019050919050565b82818337600083830152505050565b600061083161082c846107de565b6107c3565b90508281526020810184848401111561084d5761084c61075e565b5b61085884828561080f565b509392505050565b600082601f83011261087557610874610759565b5b813561088584826020860161081e565b91505092915050565b600080600080608085870312156108a8576108a7610560565b5b60006108b68782880161058b565b945050602085013567ffffffffffffffff8111156108d7576108d6610565565b5b6108e387828801610860565b935050604085013567ffffffffffffffff81111561090457610903610565565b5b61091087828801610860565b925050606085013567ffffffffffffffff81111561093157610930610565565b5b61093d87828801610860565b91505092959194509250565b7f50726f64756374206e6f7420666f756e642e0000000000000000000000000000600082015250565b600061097f60128361061d565b915061098a82610949565b602082019050919050565b600060208201905081810360008301526109ae81610972565b9050919050565b7f4e487b7100000000000000000000000000000000000000000000000000000000600052602260045260246000fd5b600060028204905060018216806109fc57607f821691505b602082108103610a0f57610a0e6109b5565b5b50919050565b7f50726f6475637420494420616c7265616479206578697374732e000000000000600082015250565b6000610a4b601a8361061d565b9150610a5682610a15565b602082019050919050565b60006020820190508181036000830152610a7a81610a3e565b9050919050565b60008190508160005260206000209050919050565b60006020601f8301049050919050565b600082821b905092915050565b600060088302610ae37fffffffffffffffffffffffffffffffffffffffffffffffffffffffffffffffff82610aa6565b610aed8683610aa6565b95508019841693508086168417925050509392505050565b6000819050919050565b6000610b2a610b25610b208461056a565b610b05565b61056a565b9050919050565b6000819050919050565b610b4483610b0f565b610b58610b5082610b31565b848454610ab3565b825550505050565b600090565b610b6d610b60565b610b78818484610b3b565b505050565b5b81811015610b9c57610b91600082610b65565b600181019050610b7e565b5050565b601f821115610be157610bb281610a81565b610bbb84610a96565b81016020851015610bca578190505b610bde610bd685610a96565b830182610b7d565b50505b505050565b600082821c905092915050565b6000610c0460001984600802610be6565b1980831691505092915050565b6000610c1d8383610bf3565b9150826002028217905092915050565b610c3682610612565b67ffffffffffffffff811115610c4f57610c4e610763565b5b610c5982546109e4565b610c64828285610ba0565b600060209050601f831160018114610c975760008415610c85578287015190505b610c8f8582610c11565b865550610cf7565b601f198416610ca586610a81565b60005b82811015610ccd57848901518255600182019150602085019450602081019050610ca8565b86831015610cea5784890151610ce6601f891682610bf3565b8355505b6001600288020188555050505b50505050505056fea2646970667358221220c1b2dcbd1eff97f0d75054cd25947fb8b230b8a322068d6e67477ea6be3f9bb964736f6c634300081b0033",
  "linkReferences": {},
  "deployedLinkReferences": {}
}